:100000000C9482000C946C030C94AA000C94AA002B
:100010000C94AA000C94AA000C94AA000C94AA00B8
:100020000C94AA000C94AA000C94AA000C94AA00A8
:100030000C94AA000C94AA000C94AA000C94AA0098
:100040000C94AA000C94AA000C94AA000C94AA0088
:100050000C9419030C94AA000C94AA000C94AA0006
:100060000C94AA000C94AA000C94AA000C94AA0068
:100070000C94AA000C94AA000C94AA0007634236C0
:10008000B79BD8A71A39685618AEBAAB558C1D3C29
:10009000B7CC5763BD6DEDFD753EF6177231BF00ED
:1000A0000000803F08000000BE922449123EABAA27
:1000B000AA2ABECDCCCC4C3E00000080BEABAAAA82
:1000C000AA3E00000000BF000000803F00000000CA
:1000D00000084178D3BB4387D1133D190E3CC3BD03
:1000E0004282AD2B3E68EC8276BED98FE1A93E4CB0
:1000F00080EFFFBE01C4FF7F3F0000000000150A33
:10010000460B190A11241FBECFEFD8E0DEBFCDBFCA
:1001100011E0A0E0B1E0E4E2FCE102C005900D9244
:10012000A631B107D9F721E0A6E1B1E001C01D92E7
:10013000AB34B207E1F710E0C1E8D0E004C021978A
:10014000FE010E946A0BCF37D107C9F70E94E3086E
:100150000C94050E0C9400000F931F93CF93DF9324
:10016000EC018C010B5F1F4FAC014F5D5F4F60E0F6
:1001700070E0C8010E94200441E089A1813009F4A7
:1001800040E049A360E070E0C801DF91CF911F918A
:100190000F910C94E504AF92BF92CF92DF92EF9251
:1001A000FF920F931F93CF93DF93EC0122E041E086
:1001B00065E270E00E94B207CE0104960E94160824
:1001C000CE0105960E94100443E06BE270E0CE0180
:1001D00006960E94180624E043E065E270E0CE0136
:1001E0000B960E9438068E010E5D1F4F28E046E0F8
:1001F0006BE270E0C8010E94AF056E0186E2C80E96
:10020000D11C27E045E06BE270E0C6010E94AF051B
:100210007E018AE2E80EF11C48E062E270E0C7016C
:100220000E942A075E018EE2A80EB11C47E062E23E
:1002300070E0C5010E942A07FA8AE98A1C8B0B8BA1
:10024000BA8EA98EDC8ECB8EBE8AAD8AD88ECF8A2E
:10025000FE8EED8E18A30F8FF894E9E6F0E0808112
:10026000816080837894CE01DF91CF911F910F91AF
:10027000FF90EF90DF90CF90BF90AF900C94AC00C8
:100280001F93CF93DF93EB01888199810E948C07A4
:10029000182F888199810E948C07811BDF91CF9153
:1002A0001F910895FB01808191810C948C070F931D
:1002B0001F93CF93DF938C01EB01888199810E947A
:1002C0008C078550843240F4BE01C8010E94400171
:1002D000823010F481E001C080E0DF91CF911F9166
:1002E0000F910895DF92EF92FF920F931F93CF9398
:1002F000DF93EC018C01075E1F4FB8010E9457018C
:10030000D82E7E0181E1E80EF11CB701CE010E94DA
:100310005701882371F0DD2089F0CE018E960E946E
:100320008C07D82ECE018A960E948C07D81630F4FE
:1003300006C0D11004C000E010E001C08701C80170
:10034000DF91CF911F910F91FF90EF90DF90089573
:100350000F931F93CF93DF93EC0106960E94230621
:100360008E010C5F1F4F41E0482765EFC8010E94D6
:100370006B08CE018A960E948C07482F67EFC80150
:100380000E946B08CE018E960E948C07482F66EF64
:10039000C801DF91CF911F910F910C946B080F93BF
:1003A0001F93CF93DF93CDB7DEB761970FB6F89465
:1003B000DEBF0FBECDBF27E0E5E0F1E0DE01119624
:1003C00001900D922A95E1F725E0ECE0F1E0DE01E5
:1003D0001D9601900D922A95E1F725E0E1E1F1E00B
:1003E000DE01189601900D922A95E1F78C010C5FC1
:1003F0001F4FAE014F5F5F4F60EFC8010E945B0867
:10040000AE01435F5F4F61EFC8010E945B0841E0AE
:1004100062EFC8010E946B08AE01485F5F4F63EF57
:10042000C8010E945B0841E064EFC8010E946B08AC
:1004300061960FB6F894DEBF0FBECDBFDF91CF91AE
:100440001F910F9108950F931F93CF938B01FB0181
:10045000808191810E948C07C82FFFEF27E883E1FC
:10046000F15020408040E1F700C00000F801808199
:1004700091810E948C07C81728F4682F8C2F0E9446
:100480001F07811181E0CF911F910F9108951F9354
:10049000CF93DF93EC01162F642F40E082960E94E9
:1004A000CB0540E0612FCE018696DF91CF911F9161
:1004B0000C94CB050F931F93CF93DF938C01C62F22
:1004C000D42F82960E94CB0566EF6C0F4D2FC8018A
:1004D0008696DF91CF911F910F910C94CB05FF92DF
:1004E0000F931F93CF93DF93EC018B01FB0180816E
:1004F00091810E948C07F82E6AE00E941F078111EB
:100500001FC062E0CE010E94B807FAE0FF1530F488
:1005100040E064E6F801828193810BC061960C177C
:100520001D0711F46AE501C064E640E0F801868128
:100530009781DF91CF911F910F91FF900C94CB0584
:1005400061E0CE010E94B80740E066E9CE01DF918C
:10055000CF911F910F91FF900C945A02CF93DF938C
:10056000EB0160E08A819B810E94E60566E48E8152
:100570009F81DF91CF910C94E605CF93DF93EC013F
:1005800040E060E082960E94CB0540E060E0CE0152
:100590008696DF91CF910C94CB05CF92DF92EF92AC
:1005A000FF920F931F93CF93DF938C01EB017A019E
:1005B0006FEB8A819B810E94E60561E48E819F81B9
:1005C0000E94E60588EE93E0E89EB001E99E700D7A
:1005D000F89E700D112480E090E00E94940A20E0C3
:1005E00030E044EB52E40E94220A6B017C01C0E03F
:1005F000D0E0BE010D2E000C880B990B0E94960ACC
:10060000A70196010E941D0A87FF08C08FE99FE09D
:100610000197F1F700C000002196EBCFC801DF91F0
:10062000CF911F910F91FF90EF90DF90CF900C949E
:10063000BD021F920F920FB60F9211242F933F937A
:100640004F935F936F937F938F939F93AF93BF93DA
:10065000EF93FF938CE191E00E942E08893FB1F067
:1006600060F4883F41F58CE191E00E942E08682FEC
:10067000809133019091340112C08A3F99F08B3FF1
:10068000D1F488E191E00E94CF0115C08CE191E0A6
:100690000E942E08682F80912B0190912C010E94BE
:1006A000E60509C08CE191E00E942E08682F88E1E0
:1006B00091E00E94C607FF91EF91BF91AF919F918A
:1006C0008F917F916F915F914F913F912F910F90FB
:1006D0000FBE0F901F9018951F920F920FB60F929A
:1006E00011242F933F934F935F936F937F938F9337
:1006F0009F93AF93BF93CF93EF93FF938EE191E0DE
:100700000E94260680913901813059F58EE191E0F1
:100710000E942306882329F1C5B1C370C13009F5B1
:1007200062E088E191E00E94B80760910201709157
:10073000030144EB50E088E191E00E94CD02C093B8
:1007400016018091000190910101209102013091E8
:1007500003013093010120930001909303018093E2
:100760000201FF91EF91CF91BF91AF919F918F9136
:100770007F916F915F914F913F912F910F900FBE9D
:100780000F901F901895CF93DF93609102017091A5
:10079000030188E191E00E942302D82F8823A1F071
:1007A000809100019091010120910201309103019B
:1007B0003093010120930001909303018093020183
:1007C00081E0809317011EC0C3E060E583E291E001
:1007D0000E944E062FEF81EE94E021508040904021
:1007E000E1F700C0000083E291E00E94B0062FEF25
:1007F00080E792E0215080409040E1F700C0000087
:10080000C15019F78D2FDF91CF910895089580EA97
:10081000809304011092B90080E28093B80008959B
:1008200020E8FC0120830C940704982F937089130F
:1008300005C0880F806A8093040108958FEF0895A2
:1008400094EA24E89093BC008091BC0087FFFCCF21
:10085000809104018093BB002093BC008091BC0078
:1008600087FFFCCF8091B900883161F784EA8093DB
:10087000BC008091BC0087FFFCCF80910401809375
:10088000BB0084E88093BC008091BC0087FFFCCF54
:100890007093BB0084E88093BC008091BC0087FF0C
:1008A000FCCF6093BB0084E88093BC008091BC00C7
:1008B00087FFFCCF8091BC0087FFFCCF84EA809348
:1008C000BC008091BC0087FFFCCF809104018F5F4A
:1008D0008093BB0084E88093BC008091BC0087FFBC
:1008E000FCCF84E88093BC008091BC0087FFFCCFE4
:1008F0008091BB00FA01808384E98093BC0080E092
:10090000089594EA34E89093BC008091BC0087FF7E
:10091000FCCF809104018093BB003093BC00809198
:10092000BC0087FFFCCF8091B900883161F784EA71
:100930008093BC008091BC0087FFFCCF80910401B4
:100940008093BB0084E88093BC008091BC0087FF4B
:10095000FCCF7093BB0084E88093BC008091BC0006
:1009600087FFFCCF6093BB0084E88093BC0080913C
:10097000BC0087FFFCCF84EA8093BC008091BC0060
:1009800087FFFCCF809104018F5F8093BB0084E8D8
:100990008093BC008091BC0087FFFCCFFA0184ECFF
:1009A000222371F0213009F484E88093BC009091F7
:1009B000BC0097FFFCCF9091BB0091932150F0CFEA
:1009C00084E98093BC0080E0089594EA24E8909341
:1009D000BC008091BC0087FFFCCF80910401809314
:1009E000BB002093BC008091BC0087FFFCCF8091AE
:1009F000B900883161F784EA8093BC008091BC0023
:100A000087FFFCCF809104018093BB0084E8809332
:100A1000BC008091BC0087FFFCCF7093BB0084E8D2
:100A20008093BC008091BC0087FFFCCF6093BB002B
:100A300084E88093BC008091BC0087FFFCCF40938A
:100A4000BB0084E88093BC008091BC0087FFFCCF92
:100A500084E98093BC0080E00895FB01E20FF11D62
:100A6000DC012C9130E021503109262B372BE21785
:100A7000F30710F0F90131968E2F861B24EA34E833
:100A80002093BC009091BC0097FFFCCF9091040193
:100A90009093BB003093BC009091BC0097FFFCCFBB
:100AA0009091B900983161F794EA9093BC009091CD
:100AB000BC0097FFFCCF909104019093BB0094E899
:100AC0009093BC009091BC0097FFFCCF7093BB004B
:100AD00094E89093BC009091BC0097FFFCCF60938A
:100AE000BB0094E89093BC009091BC0097FFFCCFB2
:100AF000FA01982F24E8992359F031913093BB00E3
:100B00002093BC003091BC0037FFFCCF9150F3CF55
:100B100094E99093BC000895CF92DF92EF92FF92F8
:100B20001F93CF93DF936C017A01122FEB01212FDA
:100B3000A701BE01C6010E942D05282F30E0C20F7B
:100B4000D31F181BE20EF31E1111F1CF80E0DF91CD
:100B5000CF911F91FF90EF90DF90CF9008950F936A
:100B600001E00E94DA06E0E8F0E08081816A80839B
:100B7000E1E8F0E0808182608083109282000F9132
:100B80000895FC0182810895FC0183810895FC0190
:100B9000808191810895FC018281853031F470E07B
:100BA000709389006093880007C0843029F470E056
:100BB00070938B0060938A0081E0411101C080E056
:100BC000482F6381808191810C94B206FF920F932C
:100BD0001F93CF93DF931F92CDB7DEB78C01862F83
:100BE000062E000C990B69830E94E008FF24F39401
:100BF000698116160CF4F12C9FEF899FB001112426
:100C0000072E000C880B990B0E94960A20E030E01A
:100C100048EC52E40E94220A0E94E40B4F2DC801C6
:100C20000F90DF91CF911F910F91FF900C94CB0506
:100C3000CF93DF93EC0120E00E9403071C82E89A27
:100C4000DF91CF910895FC0184810895FC0189B161
:100C5000AFE2B5E71197F1F700C0000099B182FF4C
:100C600004C092FB992790F901C090E09483089505
:100C70000F93CF93DF93EC0101E00E94DA0694B565
:100C8000926594BD80E091E09D838C8385B58460FE
:100C900085BD17BCDF91CF910F9108958F929F92E0
:100CA000AF92BF92CF92DF92EF92FF92CF93DF93FA
:100CB00023ED260F253208F048C0EC0170E080E0FB
:100CC00090E00E94960A20E030E04AE852E40E9458
:100CD000700B20E030E040E451E40E94220A9B01C6
:100CE000AC0160E070E080E090E40E94800C6B0159
:100CF0007C018C819D81BC0180E090E00E94940A7F
:100D00009B01AC010E94710B4B015C0120E030E0C3
:100D10004CED53E4C701B6010E94130C9B01AC01DA
:100D2000C501B4010E94130C9B01AC0160E074E2A8
:100D300084EF9AE40E94220A20E030E040E85FE37A
:100D40000E94700B0E94DD0B67BDDF91CF91FF9079
:100D5000EF90DF90CF90BF90AF909F908F900895CD
:100D600017BC0895FC019081808150E05195419518
:100D70005109492721E030E002C0220F331F6A9554
:100D8000E2F7422353234827408308958232910596
:100D900041F08532910541F0889749F08AE290E070
:100DA000089581E290E0089584E290E0089587E25A
:100DB00090E00895CF92DF92FF920F931F93CF930D
:100DC000DF93EC01CB01798368831FEF140F1A8343
:100DD00021502B830E94C6066C01FF24F39401115D
:100DE00001C0F12C4F2D612FC6010E94B2064F2D7C
:100DF0006B81C601DF91CF911F910F91FF90DF9022
:100E0000CF900C94B2061F93CF93DF931F92CDB770
:100E1000DEB7FC01718360831FEF140F1283CB01D7
:100E200029830E94C60641E02981211101C040E0CA
:100E3000612F0F90DF91CF911F910C94B20690E03B
:100E4000861B91090E94E00891E0823008F090E052
:100E5000892F089520E00C940307CF92DF92EF9240
:100E6000FF92CF93DF9300D0CDB7DEB77C01CE01E8
:100E700001960E94A508F7016281CE0101960E94A9
:100E8000AE08BC0180E090E00E94940A2AE038E2BB
:100E900040EA5BE30E94130C6B017C012DEC3CECFF
:100EA0004CEC5DE30E941D0A18162CF52FE135E885
:100EB0004BE65EE3C701B6010E941D0A811108C01E
:100EC0008EEBC82E87E8D82E8BE6E82E8EE3F82E20
:100ED0002FE135E84BE65EE3C701B6010E94700BD7
:100EE0009B01AC0163E373E383EA91E40E94220A6D
:100EF0000E94E40B01C060E5CE0101966A830E9466
:100F0000AB086A81862F0F900F90DF91CF91FF90F1
:100F1000EF90DF90CF900895EF92FF921F93CF93C1
:100F2000DF937C0119E1C0E0D0E0C7010E942D07EA
:100F3000C80FD11DC7010E942D07803548F41150FC
:100F4000A1F7CE0169E170E00E94560B862F01C027
:100F500080E5DF91CF911F91FF90EF900895FC0104
:100F6000828108950F9301E00E94DA060F9108959F
:100F7000DC01ED91FC91119770E012960C9002C08B
:100F8000660F771F0A94E2F760830895DC01ED9104
:100F9000FC91119770E012960C9002C0660F771FBB
:100FA0000A94E2F760830895DC01ED91FC911082D0
:100FB0000895CF93DF931F92CDB7DEB7FC01A081D8
:100FC000B1818C91898380E050E0A081B181861746
:100FD000F9F01C922FEF30E792E021503040904022
:100FE000E1F700C00000A081B1819A01028002C037
:100FF000220F331F0A94E2F72C932FEF30E792E091
:10100000215030409040E1F700C000008F5FDDCFFD
:10101000298130E0C901028002C0880F991F0A941B
:10102000E2F78C930F90DF91CF9108951092C50055
:101030008FEC8093C4001092C00088E18093C100BF
:101040008EE08093C20008958091C100662311F064
:10105000806801C08F778093C10008958091C0009F
:1010600087FFFCCF8091C60008958091C000881F43
:101070008827881F08958091C00085FFFCCF60936A
:10108000C6000895EF92FF920F931F93CF937C01B8
:101090008B01C0E0F801EC0FF11D6081662329F09F
:1010A000C7010E943B08CF5FF5CFCF911F910F91F1
:1010B000FF90EF9008950F931F93CF93DF93EC0170
:1010C0008A010E943B08B801CE01DF91CF911F91A8
:1010D0000F910C9442080F931F93CF93DF931F92AD
:1010E000CDB7DEB78C0149830E943B084981642F4C
:1010F000C8010F90DF91CF911F910F910C943B0885
:10110000EF92FF920F931F93CF93DF937C01062FF3
:10111000C3E0D4E61AE0802F6D2F0E944A0B612FA6
:101120000E944A0B60E3690FC7010E943B088D2FA4
:10113000612F0E944A0BD82FC15069F7DF91CF91E0
:101140001F910F91FF90EF90089510927C0086E818
:1011500080937A00089510927A00089580917C001F
:10116000807E80937C0080917C006770682B609308
:101170007C0080917A00806480937A0080917A006C
:1011800084FFFCCF80917A00806180937A00209167
:1011900078008091790090E0982F8827820F911D28
:1011A000089520E030E02817390749F0EFECF7E028
:1011B0003197F1F700C000002F5F3F4FF4CF089543
:1011C00097FD81950895CF92DF92EF92FF920F9352
:1011D0001F93CF93DF9361E08CE191E00E9424089C
:1011E00080913901811105C088E191E00E94A80138
:1011F000F7CF60E08CE191E00E942408C1E009E2B1
:1012000011E081E3E82E81E0F82ED4E092E0D92EBF
:1012100023E0C22E8091160190913901913009F09E
:10122000F9C0823009F47BC028F4882351F0813062
:1012300059F1F7CF833009F4A4C0843009F4BCC05D
:10124000F0CF60E088E191E00E94B80788E191E08A
:101250000E947201909301018093000121E0893284
:10126000920729F4F0920301E092020104C0109366
:10127000030100930201892B69F240E066E988E1ED
:1012800091E00E945A02C0C060910001709101017A
:1012900088E191E00E946F02609102017091030168
:1012A00088E191E00E945701882361F16091020179
:1012B0007091030188E191E00E944001823010F5B5
:1012C0000E94C3038823F1F060E088E191E00E946E
:1012D000B807D092160180910001909101018952C6
:1012E000914009F094C044E66CE888E191E00E94E6
:1012F00047028FEF99E628E1815090402040E1F7C6
:1013000000C00000609100017091010188E191E04E
:101310000E94570181117ECFD09316017BCF60E0F0
:1013200088E191E00E94B80746E966E988E191E02A
:101330000E944702E0910001F091010180819181BA
:101340000E948C078A3108F065CF8091000190914E
:1013500001018952914019F446E964E602C044E66D
:101360006CE888E191E00E9447028FEF99E628E15E
:10137000815090402040E1F700C00000C09216016B
:1013800049CF609100017091010188E191E00E94D4
:101390006F02609102017091030188E191E00E9467
:1013A0005701811137CFC09316018FE19EE4019759
:1013B000F1F700C000002ECFE0910001F091010193
:1013C00040E091E0E932F90731F462ED80912F01BC
:1013D0009091300103C068EC868197810E94CB0513
:1013E000E0910001F091010140E064E68281938187
:1013F0000E94CB05E0910001F09101018081918173
:101400000E948C078F30B0F7C093160103CF46E9D6
:1014100064E66BCF80E090E0DF91CF911F910F9158
:10142000FF90EF90DF90CF90089588E191E00C94C9
:10143000CB008DE191E00C9406040E94D10A08F4DF
:1014400081E008950E94360A0C940C0B0E94050B53
:1014500058F00E94FE0A40F029F45F3F29F00C94F6
:10146000F50A51110C94400B0C94FB0A0E941D0BC1
:1014700068F39923B1F3552391F3951B550BBB27C3
:10148000AA2762177307840738F09F5F5F4F220F08
:10149000331F441FAA1FA9F335D00E2E3AF0E0E8FF
:1014A00032D091505040E695001CCAF72BD0FE2F49
:1014B00029D0660F771F881FBB1F261737074807DD
:1014C000AB07B0E809F0BB0B802DBF01FF27935895
:1014D0005F4F3AF09E3F510578F00C94F50A0C945A
:1014E000400B5F3FE4F3983ED4F38695779567957C
:1014F000B795F7959F5FC9F7880F911D96958795CA
:1015000097F90895E1E0660F771F881FBB1F6217E8
:1015100073078407BA0720F0621B730B840BBA0BA6
:10152000EE1F88F7E0950895E89409C097FB3EF414
:1015300090958095709561957F4F8F4F9F4F992320
:10154000A9F0F92F96E9BB279395F695879577959E
:101550006795B795F111F8CFFAF4BB0F11F460FF5E
:101560001BC06F5F7F4F8F4F9F4F16C0882311F0B6
:1015700096E911C0772321F09EE8872F762F05C0CA
:10158000662371F096E8862F70E060E02AF09A9565
:10159000660F771F881FDAF7880F9695879597F95A
:1015A0000895990F0008550FAA0BE0E8FEEF1616F4
:1015B0001706E807F907C0F012161306E407F50747
:1015C00098F0621B730B840B950B39F40A2661F0BB
:1015D000232B242B252B21F408950A2609F4A1405E
:1015E000A6958FEF811D811D089597F99F6780E86B
:1015F00070E060E008959FEF80EC089500240A9465
:101600001616170618060906089500240A941216DD
:101610001306140605060895092E0394000C11F410
:10162000882352F0BB0F40F4BF2B11F460FF04C0BD
:101630006F5F7F4F8F4F9F4F089557FD9058440F16
:10164000551F59F05F3F71F04795880F97FB991F21
:1016500061F09F3F79F087950895121613061406DE
:10166000551FF2CF4695F1DF08C01616170618066B
:10167000991FF1CF86957105610508940895E89446
:10168000BB2766277727CB0197F908958AE491E075
:101690000C941608991B79E004C0991F961708F05E
:1016A000961B881F7A95C9F780950895AA1BBB1BC6
:1016B00051E107C0AA1FBB1FA617B70710F0A61B52
:1016C000B70B881F991F5A95A9F780959095BC0173
:1016D000CD010895EE0FFF1F0590F491E02D0994C0
:1016E0005058BB27AA270E94880B0C940C0B0E9411
:1016F000FE0A38F00E94050B20F039F49F3F19F4E0
:1017000026F40C94FB0A0EF4E095E7FB0C94F50A22
:10171000E92F0E941D0B58F3BA176207730784075D
:10172000950720F079F4A6F50C943F0B0EF4E095A4
:101730000B2EBA2FA02D0B01B90190010C01CA018B
:10174000A0011124FF27591B99F0593F50F4503E36
:1017500068F11A16F040A22F232F342F4427585F28
:10176000F3CF469537952795A795F0405395C9F740
:101770007EF41F16BA0B620B730B840BBAF09150F8
:10178000A1F0FF0FBB1F661F771F881FC2F70EC097
:10179000BA0F621F731F841F48F48795779567956A
:1017A000B795F7959E3F08F0B0CF9395880F08F056
:1017B0009927EE0F9795879508950E94E40B6894FA
:1017C000B1110C94400B08950E94250B88F09F578F
:1017D00098F0B92F9927B751B0F0E1F0660F771F55
:1017E000881F991F1AF0BA95C9F714C0B13091F04B
:1017F0000E943F0BB1E008950C943F0B672F782FA8
:101800008827B85F39F0B93FCCF38695779567950F
:10181000B395D9F73EF490958095709561957F4F7B
:101820008F4F9F4F08950E94260C0C940C0B0E9422
:10183000FE0A38F00E94050B20F0952311F00C945D
:10184000F50A0C94FB0A11240C94400B0E941D0B0A
:1018500070F3959FC1F3950F50E0551F629FF00103
:10186000729FBB27F00DB11D639FAA27F00DB11D1C
:10187000AA1F649F6627B00DA11D661F829F2227A5
:10188000B00DA11D621F739FB00DA11D621F839F2C
:10189000A00D611D221F749F3327A00D611D231F02
:1018A000849F600D211D822F762F6A2F11249F5750
:1018B00050409AF0F1F088234AF0EE0FFF1FBB1F53
:1018C000661F771F881F91505040A9F79E3F510512
:1018D00080F00C94F50A0C94400B5F3FE4F3983EC3
:1018E000D4F3869577956795B795F795E7959F5FBC
:1018F000C1F7FE2B880F911D9695879597F908954E
:10190000FA01EE0FFF1F309621053105A1F1611597
:10191000710561F48038BFE39B0749F16894903802
:10192000810561F08038BFEF9B0741F099234AF5AC
:10193000FF3FE1053105210519F1E8940894E79589
:10194000D901AA2329F4AB2FBE2FF85FD0F310C022
:10195000FF5F70F4A695E0F7F73950F019F0FF3A01
:1019600038F49F779F930DD00F9007FC90580895FF
:1019700046F00C94FB0A60E070E080E89FE3089575
:101980004FE79F775F934F933F932F930E947B0D79
:101990002F913F914F915F910E94130C0C94D80CA2
:1019A00029F416F00C94F50A0C943F0B0C94FB0AE6
:1019B0000E94250BA8F39638A0F707F80F92E89439
:1019C0002BE33AEA48EB5FE70E94290C0F920F9253
:1019D0000F924DB75EB70F920E94C30DECE7F0E097
:1019E0000E940A0D4F915F91EF91FF91E595EE1FD7
:1019F000FF1F49F0FE57E0684427EE0F441FFA9599
:101A0000E1F74195550B0E943D0D0F9007FE0C9498
:101A1000310D0895DF93CF931F930F93FF92EF92B1
:101A2000DF927B018C01689406C0DA2EEF010E94E0
:101A3000260CFE01E894A59125913591459155918B
:101A4000A6F3EF010E94880BFE019701A801DA942A
:101A500069F7DF90EF90FF900F911F91CF91DF9189
:101A600008959B01AC0160E070E080E89FE30C9476
:101A7000220A0C94F50A0C94F70D0E94250BD8F35A
:101A80009923C9F3940F511DA3F39150504094F042
:101A900059F0882332F0660F771F881F915050400D
:101AA000C1F79E3F51052CF7880F911D969587959C
:101AB00097F908955F3FACF0983E9CF0BB27869560
:101AC00077956795B79508F4B1609395C1F7BB0F0B
:101AD00058F711F460FFE8CF6F5F7F4F8F4F9F4F34
:101AE000E3CF0C94400B16F00C94F70D0C94FB0A0A
:101AF00068940C94F50A0E94250BA8F39923C1F36E
:101B0000AEF3DF93CF931F930F93FF92C92FDD277F
:101B100088232AF02197660F771F881FDAF720E0C5
:101B200030E040E85FEB9FE3883920F0803E38F0FA
:101B300021968F770E94710BE4EAF0E004C00E94C6
:101B4000710BE1EDF0E00E940A0D8B01BE01EC018A
:101B5000FB2E6F5771097595771F880B990B0E94A3
:101B6000960A28E132E741E35FE30E94260CAF2D9D
:101B70009801AE01FF900F911F91CF91DF910E94CC
:101B8000880B0C940C0BFA01DC01AA0FBB1F9B0104
:101B9000AC01BF5728F4222733274427507820C0B0
:101BA000B75190F4AB2F0024469537952795011C2B
:101BB000A395D2F3002071F0220F331F441FB39579
:101BC000DAF30ED00C94700B61307105A0E88A072F
:101BD000B94630F49B01AC016627772788279078B7
:101BE000309621F0208331834283538308959F3FB1
:101BF00031F0915020F4879577956795B795880FC8
:101C0000911D9695879597F9089510E0C1E8D0E069
:101C100004C0FE010E946A0B2196C238D107C9F7A1
:041C2000F894FFCF66
:101C240029013101A055544F504941003039313117
:061C34000031382D3100E3
:00000001FF
